:020000040800F2
:10000000C00E002015C20008D5020008D702000863
:10001000DB020008DF020008E30200080000000025
:10002000000000000000000000000000E7020008DF
:10003000E902000800000000EB020008ED020008E1
:100040002FC200082FC200082FC20008D597000851
:100050002FC200082FC200080D9C00082FC2000804
:10006000479C00087F9C0008B79C00082FC200082E
:100070002FC200082FC200082FC200082FC200089C
:100080002FC200082FC200082FC200082FC200088C
:100090002FC200082FC200082FC200082FC200087C
:1000A0002FC200082FC200082FC200082FC200086C
:1000B0002FC200082FC2000835FE00082FC200081A
:1000C0002FC200082FC200082FC200082FC200084C
:1000D0002FC20008A5C100082FC200082FC20008C7
:1000E0002FC200080D9700082FC200082FC2000879
:1000F0002FC200082FC200082FC200082FC200081C
:100100002FC200082FC200082FC200082FC200080B
:100110002FC200082FC200082FC200082FC20008FB
:100120002FC200082FC200082FC200082FC20008EB
:100130002FC200082FC200082FC200082FC20008DB
:100140002FC200082FC200082FC200082FC20008CB
:100150002FC200082FC200082FC200082FC20008BB
:100160002FC200082FC200082FC200082FC20008AB
:100170002FC200082FC200082FC200082FC200089B
:100180002FC200082FC2000800F002F800F06DF83E
:100190000AA090E8000C82448344AAF10107DA45E2
:1001A00001D100F062F8AFF2090EBAE80F0013F0C7
:1001B000010F18BFFB1A43F0010318473C4101002F
:1001C0005C4101000A444FF0000C10F8013B13F0B1
:1001D000070408BF10F8014B1D1108BF10F8015BA0
:1001E000641E05D010F8016B641E01F8016BF9D193
:1001F00013F0080F1EBF10F8014BAD1C0C1B09D1EA
:100200006D1E58BF01F801CBFAD505E014F8016B5B
:1002100001F8016B6D1EF9D59142D6D370470000ED
:100220000023002400250026103A28BF78C1FBD8FF
:10023000520728BF30C148BF0B607047642910F0D7
:10024000DF83752910F0DC83782910F01584632989
:1002500010F02786732910F02C86002070471FB5F8
:1002600012F001FA1FBD10B510BD10F045FE114689
:10027000FFF7F5FF00F008F810F063FE03B4FFF796
:10028000F2FF03BC0BF02EFF4FF4A0600BF0E2FF77
:10029000A8200BF0A5FE4FF4E1300BF031FF09F080
:1002A00013FC0A4841685420884704F0EDF905F032
:1002B000CBF809F0AEF909F02FFB09F018FD04495D
:1002C0000868804704F09EF900BFFEE71C0100208B
:1002D00068000020704700BFFEE700BFFEE700BFD8
:1002E000FEE700BFFEE770477047704770470000A9
:1002F0000CB50020019000907648006840F48030F2
:100300007449086000BF7348006800F40030009032
:100310000198401C0190009818B90198B0F5A04FC1
:10032000F1D16C48006800F4003010B10120009059
:1003300001E0002000900098012846D16548403037
:10034000006840F0805063494031086062480068AE
:1003500040F44040604908605E48083000685D49EC
:10036000083108600846006840F40040086008460C
:10037000006840F4A05008605848091F0860081F32
:10038000006840F08070091F086000BF5148006895
:1003900000F000700028F9D040F205705049086064
:1003A0004C480830006820F003004A4908310860D2
:1003B0000846006840F00200086000BF4548083069
:1003C000006800F00C000828F8D10CBD10B54548B5
:1003D000006840F47000434908603E48006840F0FF
:1003E00001003C49086000203A490831086039485A
:1003F00000683D490840374908603C48091D0860CD
:10040000081F006820F48020091F0860002031497F
:100410000C310860FFF76CFF4FF000603149803904
:10042000086010BD70B500200022022300240221C4
:10043000284D08352D6805F00C0020B1042806D0A1
:10044000082834D107E02A4D2A4E356033E02A4D82
:10045000284E35602FE01F4D2D1D2D68C5F38054AB
:100460001C4D2D1D2D6805F03F0154B1224DB5FBEB
:10047000F1F5184E361D3668C6F3881605FB06F2F0
:1004800009E01B4DB5FBF1F5124E361D3668C6F37B
:10049000881605FB06F20F4D2D1D2D68C5F301458D
:1004A0006D1C6B00B2FBF3F5124E356003E0104D8E
:1004B000104E356000BF00BF064D08352D68C5F3EE
:1004C00003150E4E705D0B4D2D68C540094E35600D
:1004D00070BD000000380240007000400854400722
:1004E000003C024088ED00E0FFFFF6FE10300024E3
:1004F0000024F4000000002000127A000400002014
:1005000070B504460D461646FE480680A9B2A0B254
:1005100004F07DFC70BD2DE9F04104460D46164601
:1005200098460027F748A0F8008006E0F31BDAB2EF
:10053000A9B2A0B208F03EFD7F1CB742F6DD05F17E
:10054000010C1FFA8CF304F1010C1FFA8CF2A9B212
:10055000A0B208F011FDBDE8F0812DE9FF4F85B094
:1005600080468946129F002003900290B84507DB21
:100570000798B84204DBB94502DB0898B84202DAB2
:1005800009B0BDE8F08F2FB949464046139AFFF7EE
:10059000B7FFF5E70798A0EB08040898A0EB09055A
:1005A000CDF80480CDF80090002C02DD4FF0010A58
:1005B00006E014B94FF0000A02E04FF0FF3A64423F
:1005C000002D02DD4FF0010B06E015B94FF0000BD6
:1005D00002E04FF0FF3B6D42AC4201DD264600E0F9
:1005E0002E460020049021E03A46139BDDE90010DE
:1005F000FFF791FF0398204403900298284402904B
:100600000398B04205DD0398801B03900198504485
:1006100001900298B04205DD0298801B029000987C
:10062000584400900498401C80B20490711C0498B7
:100630008842D9DD00BFA3E710B5B348008804F0B5
:10064000D1FEB1480088B149088010BD2DE9F04FB6
:100650002DED0C8B87B04FF004094FF0FA0AFA2702
:10066000C8254FF0020B0BEB8B0046004FF478408F
:100670000290FFF7E1FF4FF60740A24908800024EF
:1006800007E02B19DAB2B9B21FFA8AF008F092FC2F
:10069000641C4C45F5DB4FF607434A463946504645
:1006A000FFF739FF002483E100EE104AB8EEC00ADC
:1006B000DFED970A20EE200AF2EE080A80EE201AFB
:1006C0008DED011A019811F05DFF41EC1D0BB0EEAC
:1006D0004D0AF0EE6D0A10F053FCB0EE40BAF0EEA9
:1006E00060BA284611F0F1FB41EC1C0B53EC1B2BBC
:1006F00011F052FC41EC190B504611F0E6FB41ECB5
:100700001A0B53EC192B11F077F941EC180B11F07F
:100710007FFB069000EE104AB8EEC00ADFED7C0ABF
:1007200020EE200AF2EE080A80EE201A8DED011A62
:10073000019811F027FF41EC1D0BB0EE4D0AF0EED1
:100740006D0A10F081FCB0EE40BAF0EE60BA2846B7
:1007500011F0BBFB41EC1C0B53EC1B2B11F01CFCF0
:1007600041EC190B384611F0B0FB41EC1A0B53EC7D
:10077000192B11F041F941EC180B11F049FB0590D0
:1007800000EE104AB8EEC00ADFED610A20EE200A42
:10079000F2EE080A80EE201A8DED011A019811F090
:1007A000F1FE41EC1D0BB0EE4D0AF0EE6D0A10F0BB
:1007B000E7FBB0EE40BAF0EE60BAA81B11F085FB83
:1007C00041EC1C0B53EC1B2B11F0E6FB41EC190B1D
:1007D000504611F07AFB41EC1A0B53EC192B11F037
:1007E0000BF941EC180B11F013FB049000EE104ACA
:1007F000B8EEC00ADFED460A20EE200AF2EE080A43
:1008000080EE201A8DED011A019811F0BBFE41EC2B
:100810001D0BB0EE4D0AF0EE6D0A10F015FCB0EEB7
:1008200040BAF0EE60BAA81B11F04FFB41EC1C0B74
:1008300053EC1B2B11F0B0FB41EC190B384611F0B7
:1008400044FB41EC1A0B53EC192B11F0D5F841EC99
:10085000180B11F0DDFA03900BF0FF010298CDE9BF
:100860000010DDF80CC01FFA8CF3DDF810C01FFA81
:100870008CF2DDF814C01FFA8CF1DDF818C01FFAF5
:100880008CF0FFF76AFE00EE104AB8EEC00ADFED0A
:10089000200A60EE200AB2EE081A80EE810ADFED2F
:1008A0001D0A30EE600A8DED010A019811F06AFE12
:1008B00041EC1D0BB0EE4D0AF0EE6D0A10F060FB3E
:1008C000B0EE40BAF0EE60BAA5EB460011F0FDFACA
:1008D00041EC1C0B53EC1B2B11F05EFB41EC190B94
:1008E000504611F0F2FA41EC1A0B53EC192B11F0AF
:1008F00083F841EC180B11F08BFA049000EE104ACB
:100900000AE000005C000020140000205E000020CF
:10091000DA0FC940910A863FB8EEC00A5FED040ABB
:1009200060EE200AB2EE081A80EE810A5FED070A37
:1009300030EE600A8DED010A019811F023FE41ECC2
:100940001D0BB0EE4D0AF0EE6D0A10F07DFBB0EE1F
:1009500040BAF0EE60BAA5EB460011F0B6FA41ECF1
:100960001C0B53EC1B2B11F017FB41EC190B3846F9
:1009700011F0ABFA41EC1A0B53EC192B11F03CF8C7
:1009800041EC180B11F044FA039004F101080A201D
:1009900098FBF0F0401CC0B2019010200090039A28
:1009A00091B2049A90B24246019B08F0E2FB641CAB
:1009B0000C2CFFF679AE07B0BDEC0C8BBDE8F08FC8
:1009C00000B591B003A900200DF0EAF89DF80E00E3
:1009D00000909DF80D309DF80F20FEA104A80FF0A7
:1009E000ABFF04A818210B46D222CDE900104FF42A
:1009F000FA71A02008F075FC9DF80C20FBA104A85A
:100A00000FF09AFF04A818210B46D222CDE900105E
:100A10004FF40771C82008F064FC11B000BD00B5A8
:100A20008DB00CA900200DF021F89DF83200009047
:100A30009DF831309DF83020EEA102A80FF07CFF28
:100A400002A818210B46D222CDE900104FF41171F3
:100A5000A02008F046FCEC48006800BB9DF831007F
:100A6000B0B99DF83200052812DAE848006808B9E4
:100A7000012000E00020E5490860E548D0F8A40224
:100A800008B9012000E00020E049091D086006E0E7
:100A90000020DE4908600120DD49C1F8A4020DB044
:100AA00000BD2DE9F04F2DED0C8B83B0FA24FA2513
:100AB000642001904FF4784B4FF60740D5490880E9
:100AC00002A900200CF0D2FF9DF80A0000EE100AE7
:100AD000B8EE400A5FED720A20EE200A9FEDCE1AB2
:100AE000C0EE010A9FEDCD0A30EEC00A10EE109A5A
:100AF000484611F047FD41EC1D0BB0EE4D0AF0EEFB
:100B00006D0A10F03DFAB0EE40BAF0EE60BA01980E
:100B100011F0DBF941EC1C0B53EC1B2B11F03CFAF0
:100B200041EC190B204611F0D0F941EC1A0B53ECB3
:100B3000192B10F061FF41EC180B11F069F9804698
:100B40009DF80A0000EE100AB8EE400A5FED900A28
:100B500020EE200ADFEDB00A80EE201A9FEDAF0AEA
:100B600031EE400A10EE109A484611F00BFD41ECB0
:100B70001D0BB0EE4D0AF0EE6D0A10F065FAB0EE06
:100B800040BAF0EE60BA019811F09FF941EC1C0BED
:100B900053EC1B2B11F000FA41EC190B284611F015
:100BA00094F941EC1A0B53EC192B10F025FF41EC92
:100BB000180B11F02DF9824626462F469548A0F8CD
:100BC00000B03B4632461FFA8AF11FFA88F008F05F
:100BD0007BF903B0BDEC0C8BBDE8F08F2DE9F04F35
:100BE0002DED0C8B83B0FA24FA25642001904FF48C
:100BF000FC6B4FF607408749088002A900200CF0E3
:100C000035FF9DF8090000EE100AB8EE400A5FEDCE
:100C1000C00A20EE200A9FED801AC0EE010A9FED67
:100C20007F0A30EEC00A10EE109A484611F0AAFC76
:100C300041EC1D0BB0EE4D0AF0EE6D0A10F0A0F97C
:100C4000B0EE40BAF0EE60BA019811F03EF941EC16
:100C50001C0B53EC1B2B11F09FF941EC190B204698
:100C600011F033F941EC1A0B53EC192B10F0C4FEC0
:100C700041EC180B11F0CCF880469DF8090000EE0D
:100C8000100AB8EE400A5FEDDE0A20EE200ADFED22
:100C9000620A80EE201A9FED610A31EE400A10EEE2
:100CA000109A484611F06EFC41EC1D0BB0EE4D0A57
:100CB000F0EE6D0A10F0C8F9B0EE40BAF0EE60BA8E
:100CC000019811F002F941EC1C0B53EC1B2B11F0B5
:100CD00063F941EC190B284611F0F7F841EC1A0BB7
:100CE00053EC192B10F088FE41EC180B11F090F822
:100CF000824626462F464748A0F800B03B4632467B
:100D00001FFA8AF11FFA88F008F0DEF803B0BDEC94
:100D10000C8BBDE8F08F2DE9F04F2DED0C8B83B0DF
:100D2000FA24FA2564261F2001904FF6074039491E
:100D3000088002A900200CF099FE9DF808000C28FC
:100D400005DD9DF808000C38C0B28DF808009DF84C
:100D5000080000EE100AB8EE400ADFED310A20EE7E
:100D6000200AB2EE081AC0EE010A9DF8090000EE52
:100D7000100AB8EE400A9FED2B1A20EE010A9FEDF3
:100D8000261AC0EE011A30EEA10ADFED240A30EE79
:100D9000600A10EE10BA584611F0F4FB41EC1D0B3E
:100DA000B0EE4D0AF0EE6D0A10F0EAF8B0EE40BA7F
:100DB000F0EE60BA032096FBF0F04FEA400B584685
:100DC00011F083F841EC1C0B53EC1B2B11F0E4F8F1
:100DD0002AE00000446174653A3230253032642DD7
:100DE000253032642D253032640000007765656B54
:100DF0003A25640054696D653A253032643A2530ED
:100E000032643A253032640038000020A082424229
:100E1000008042425C00002000007042DA0FC93FAF
:100E2000DA0FC940910A063F41EC190B204611F038
:100E30004CF841EC1A0B53EC192B10F0DDFD41EC92
:100E4000180B10F0E5FF07469DF8080000EE100AA9
:100E5000B8EE400A5FED0E0A20EE200AB2EE081A44
:100E6000C0EE010A9DF8090000EE100AB8EE400A33
:100E70001FED141A20EE010A1FED191AC0EE011A17
:100E800030EEA10A5FED1B0A30EE600A10EE10BAD8
:100E9000584611F077FB41EC1D0BB0EE4D0AF0EE19
:100EA0006D0A10F0D1F8B0EE40BAF0EE60BA03204F
:100EB00096FBF0F04FEA400B584611F006F841EC73
:100EC0001C0B53EC1B2B11F067F841EC190B284657
:100ED00010F0FBFF41EC1A0B53EC192B10F08CFDBA
:100EE00041EC180B10F094FF8046A146AA46FE493B
:100EF000019808801FFA8AF31FFA89F21FFA88F115
:100F0000B8B207F0E1FF03B0BDEC0C8BBDE8F08F89
:100F1000F8B5FA25FA266424F448008833192A190A
:100F2000311B0090281B07F043FFF8BD10B5FFF7F9
:100F3000EFFFFFF7F0FEFFF751FEFFF7B2FD10BD28
:100F40007CB58C2408F062FD0546E9A01821CDE9A6
:100F5000001020460B46E6224FF41B7108F0C1F941
:100F6000002D0EDA6D42E7A01021CDE9001004F14A
:100F7000840188B210231A464FF41B7108F0B1F9AE
:100F80000CE0E1A01021CDE9001004F1840188B249
:100F900010231A464FF41B7108F0A3F9642095FB47
:100FA000F0F61820009004F19001019088B202231D
:100FB00032464FF41B7108F026F9642095FBF0F1DE
:100FC00000FB11561820009004F1B401019088B282
:100FD000022332464FF41B7108F015F97CBD0FB4A3
:100FE0007CB50A9880B20090099CA3B2089CA2B27A
:100FF000079CA1B2069CA0B207F0DAFE48F21F409F
:10100000B9490880099CA3B2069CA2B2079CA1B270
:10101000069CA0B207F058FF099CA3B2089CA2B29C
:10102000079CA1B2089CA0B207F04EFF079CA3B298
:10103000089CA2B2079CA1B2069CA0B207F044FF94
:10104000099CA3B2089CA2B2099CA1B2069CA0B2C2
:1010500007F03AFF4FF6FF70A3490880AB490A98A2
:1010600008800BA81821CDE90010069D089B5B1B8A
:101070004FF6FF7505EA8302099D079B5C1904EB97
:10108000D4735B100A3B99B2069B0A3398B21823BB
:1010900008F027F9954800889C4908807CBC5DF8D9
:1010A00014FB2DE9F04387B00A26B1466424642579
:1010B000C827B04696480660C0F804907019944955
:1010C000886009EB0400C8604FF478400861084666
:1010D00090A109888182182200F1100168460FF062
:1010E000DFFD8B480FC8FFF77AFF894880683844D6
:1010F0008949086086484068486008460068284476
:101100008860084640682044C8604FF47840086111
:1011100008467CA109888182182200F110016846E6
:101120000FF0BEFD7C480FC8FFF759FF7B480660F3
:101130007748C068404479494860084600682844B8
:101140008860084640682044C8604FF478400861D1
:10115000084670A109888182182200F110016846B2
:101160000FF09EFD6D480FC8FFF739FF6848806893
:1011700038446B4908606948406848600846006820
:1011800028448860084640682044C8604FF478408E
:10119000086108465BA109888182182200F11001CC
:1011A00068460FF07DFD5E480FC8FFF718FF5D48E9
:1011B00006605A48C06840445A494860084600687A
:1011C00028448860084640682044C8604FF478404E
:1011D000086108464FA109888182182200F1100198
:1011E00068460FF05DFD4F480FC8FFF7F8FE4D4809
:1011F000806838444C4908604A484068486008465E
:10120000006828448860084640682044C8604FF45D
:101210007840086108463BA109888182182200F1C4
:10122000100168460FF03CFD3F480FC8FFF7D7FE9E
:101230003E4806603B48C06840443C494860084618
:10124000006828448860084640682044C8604FF41D
:101250007840086108462FA109888182182200F190
:10126000100168460FF01CFD30480FC8FFF7B7FEAD
:101270002E48806838442E4908602C4840684860F1
:101280000846006828448860084640682044C860D2
:101290004FF47840086108461AA109888182182213
:1012A00000F1100168460FF0FBFC21480FC8FFF762
:1012B00096FE204806601D48C06840441D494860AD
:1012C0000846006828448860084640682044C86092
:1012D0004FF47840086108460EA1098881821822DF
:1012E00000F11001684627E05C0000201400002097
:1012F00054656D707261747572653A2030302E30AD
:10130000304300002D000000200000005E0000209F
:10131000140300202B000000040400203C030020E4
:101320002C04002064030020540400208C030020BF
:101330007C040020B40300200FF0B2FCFE480FC86C
:10134000FFF74DFEFC4880683844FC490860FA48C5
:10135000406848600846006828448860084640683D
:101360002044C8604FF4784008610846AFF26C0131
:1013700009888182182200F1100168460FF090FC64
:10138000EE480FC8FFF72BFEED480660EA48C0683C
:1013900000EB4800EA494860084600682844886035
:1013A000084640682044C8604FF478400861E5A1D1
:1013B000E34814300FF050FC1822E1491031684620
:1013C0000FF06EFCDE480FC8FFF709FEDC488068AE
:1013D0003844DE490860DA484068486008460068DA
:1013E00028448860084640682044C8604FF478402C
:1013F0000861D7A1D54814300FF02EFC1822D3492C
:10140000103168460FF04CFCD0480FC8FFF7E7FDDD
:1014100007B0BDE8F08310B5CF4841680020884789
:1014200000281AD0CC488089CC490968884215DD4B
:10143000C9488089C949896888420FDAC648C08A84
:10144000C6494968884209DDC348C08AC349C9689A
:10145000884203DA0120C249086037E1BE4880892A
:10146000C0490968884215DDBB488089BD49896843
:1014700088420FDAB848C08ABA494968884209DD0B
:10148000B548C08AB749C968884203DA0220B4491E
:1014900008601BE1B0488089B3490968884215DDBE
:1014A000AD488089B049896888420FDAAA48C08A65
:1014B000AD494968884209DDA748C08AAA49C96878
:1014C000884203DA0320A6490860FFE0A248808929
:1014D000A6490968884215DD9F488089A349896823
:1014E00088420FDA9C48C08AA0494968884209DDD1
:1014F0009948C08A9D49C968884203DA04209849FE
:101500000860E3E0944880898B490968884215DDCA
:10151000914880898849896888420FDA8E48C08A54
:1015200085494968884209DD8B48C08A8249C96873
:10153000884203DA05208A490860C7E08648808926
:101540008B490968884215DD834880898849896804
:1015500088420FDA8048C08A85494968884209DD97
:101560007D48C08A8249C968884203DA01208149DE
:101570000860ABE0784880897F490968884215DDBA
:10158000754880897C49896888420FDA7248C08A28
:1015900079494968884209DD6F48C08A7649C96837
:1015A000884203DA0220734908608FE06A48808924
:1015B00072490968884215DD674880896F498968E2
:1015C00088420FDA6448C08A6C494968884209DD5C
:1015D0006148C08A6949C968884203DA03206549BD
:1015E000086073E05C48808965490968884215DDB8
:1015F000594880896249896888420FDA5648C08A0A
:101600005F494968884209DD5348C08A5C49C96816
:10161000884203DA04205749086057E04E48808921
:1016200046490968884215DD4B48808943498968E5
:1016300088420FDA4848C08A40494968884209DD33
:101640004548C08A3D49C968884203DA05204949AE
:1016500008603BE04048808939490968884217DDC5
:101660003D48808936498968884211DA3A48C08AFB
:101670003349496888420BDD3748C08A3049C96818
:10168000884205DA01203F4908603F4908601DE0B3
:10169000314880892D490968884217DD2E488089A4
:1016A0002A498968884211DA2B48C08A2749496843
:1016B00088420BDD2848C08A2449C968884205DA77
:1016C00000203049086001202F49086010BD30B566
:1016D0008DB004460D4634222C4968460FF0E0FADE
:1016E000642194FBF1F201FB124131B1E11704EBEB
:1016F00091718910A4EB810131B14FF4C87194FB51
:10170000F1F201FB124109B91D2002905DF825009C
:101710000DB030BD0146642291FBF2F302FB1312BF
:1017200032B1CA1701EB92729210A1EB820212B190
:101730004FF4C8722CE030E0B4030020A404002071
:10174000F4040020636F6E6669726D001C05002052
:1017500063616E63656C0000680000201403002064
:10176000240000203C030020640300208C030020A0
:1017700004040020280000202C0400205404002031
:101780007C0400201C0000201800002074260108A2
:1017900091FBF2F302FB131212B94FF4B7707047CA
:1017A00040F26D10FBE72DE9F0439BB004460D4677
:1017B00017463422FE490EA80FF072FA3422FC4973
:1017C000343101A80FF06CFA4FF00109694600208E
:1017D0000CF0E6F99DF8030000F5FA60C0B28DF850
:1017E000030000269DF80300A04213DB9DF80300D0
:1017F000A04203D19DF80100A8420BDB9DF8030035
:10180000A04223D19DF80100A8421FD19DF80200FB
:10181000B8421BDAA0469DF8034008F0FF008DF89F
:101820000300A8469DF8015008F0FF008DF8010064
:10183000B8469DF8027008F0FF008DF80200B9F17B
:10184000000F01D1012000E000208146642194FBBB
:10185000F1F201FB124131B1E11704EB91718910F2
:10186000A4EB810131B14FF4C87194FBF1F201FB9B
:10187000124109B91D2010909DF80310642291FBBC
:10188000F2F302FB131141B19DF80300C11700EB05
:1018900091718910A0EB810141B19DF803104FF4C3
:1018A000C87291FBF2F302FB131109B91D200390DA
:1018B0009DF80300A0421DDD09E004E00EA850F8E9
:1018C000250006446D1C0D2DF8DB0125641C9DF8D8
:1018D0000300A042F1DC04E001A850F82500064412
:1018E0006D1C9DF80100A842F6DC9DF80200C01BAB
:1018F00006441AE09DF80100A8420EDD04E001A8AC
:1019000050F8250006446D1C9DF80100A842F6DC45
:101910009DF80200C01B064407E09DF80200B84293
:1019200003DD9DF80200C01B0644072096FBF0F182
:1019300000FB1166B9F1000F06D09DF80000861B70
:10194000012E07DAF61D05E09DF800000644072E7B
:1019500000DDF61F30461BB0BDE8F08300B593B044
:101960000A2012901190642010900F900A200E907F
:1019700000200D9005A90CF013F99DF8170000F553
:10198000FA600B909DF815000A909DF816000990DA
:101990009DF8140006908748008803F023FD47F661
:1019A0007C508549088048F21F40844908800CA972
:1019B00000200CF05BF89DF8300008909DF8310095
:1019C0000790FFF76EFB7EA01821CDE9001010985C
:1019D000049000EBD07041101198084403900F99C7
:1019E000129808440A30182364220290039907F0E1
:1019F00078FC1821009101911098049000EBD070B0
:101A000041101198084403900F99129808444630E9
:101A1000042302900B9A039907F0F5FB6AA01821A2
:101A2000CDE900101098049000EBD070411011988F
:101A30000A180E99109801440D98401C0D9011FB46
:101A4000002080B203900F99129808440A3018239E
:101A500064220290039907F044FC18200090019042
:101A60001098049000EBD070411011980A180E994C
:101A7000109801440D9811FB002080B203900F993B
:101A8000129808445230042302900A9A039907F0EE
:101A9000BAFB4FA01821CDE900101098049000EB7C
:101AA000D070411011980A180E99109801440D98A1
:101AB000401C0D9011FB002080B203900F991298EA
:101AC00008440A30182364220290039907F009FCA5
:101AD0001820009001901098049000EBD0704110F5
:101AE00011980A180E99109801440D9811FB0020C6
:101AF00080B203900F991298084446300423029054
:101B0000099A039907F07FFB33A01821CDE9001053
:101B10001098049000EBD070411011980A180E999B
:101B2000109801440D98401C0D9011FB002080B2CC
:101B300003900F99129808440A30182364220290E7
:101B4000039907F0CEFB18200090019010980490A4
:101B500000EBD070411011980A180E9910980144AA
:101B60000D9811FB002080B203900F991298084441
:101B7000463002230290089A039907F044FB18A00C
:101B80001821CDE900101098049000EBD07041109E
:101B900011980A180E99109801440D98401C0D9048
:101BA00011FB002080B203900F99129808441BE0AB
:101BB000A8260108140000205E0000205C00002020
:101BC000796561723A0000006D6F6E74683A0000CA
:101BD000646174653A000000686F75723A00000035
:101BE0006D696E7574653A000A301823642202909C
:101BF000039907F076FB182000900190109804904C
:101C000000EBD070411011980A180E9910980144F9
:101C10000D9811FB002080B203900F991298084490
:101C20005E3002230290079A039907F0ECFABEE1B6
:101C3000FFF7F1FBFC480068062823D2DFE800F03C
:101C4000D203234C7DA80B98401C0B900B980028C6
:101C500001DA00200B901820009001901098049059
:101C600000EBD07041101198084480B203900F9996
:101C700012980844463080B2042302900B9A0399CC
:101C800007F0C1FAAEE00A98401C0A900A980128B1
:101C900001DA0C200A900A980C2801DD01200A9034
:101CA0001820009001901098049000EBD070411023
:101CB00011980A180E9910980844104480B20390A5
:101CC0000F9912980844523080B2042302900A9A65
:101CD000039907F098FA85E00998401C0990099843
:101CE000012804DADDE90A10FFF7F1FC0990DDE9CB
:101CF0000A10FFF7ECFC0999884201DA01200990EB
:101D00001820009001901098049000EBD0704110C2
:101D100011980A180E991098084402EB400080B2FE
:101D200003900F9912980844463080B20423029021
:101D3000099A039907F067FA54E00898401C089044
:101D40000898002801DA172008900898172801DD64
:101D5000002008901820009001901098049000EB4B
:101D6000D070411011980A180E991098084400EB91
:101D70004000104480B203900F99129808444630F6
:101D800080B202230290089A039907F03CFA29E0F6
:101D90000798401C07900798002801DA3B2007901D
:101DA00007983B2801DD0020079018200090019043
:101DB0001098049000EBD070411011980A180E99F9
:101DC0001098084402EB800080B203900F9912989B
:101DD00008445E3080B202230290079A039907F00C
:101DE00012FA00BF00BF00208F4908608F480068CA
:101DF00006287CD2DFE800F0D403234C7FAA0B989E
:101E0000401E0B900B98002801DA00200B90182040
:101E1000009001901098049000EBD0704110119840
:101E2000084480B203900F9912980844463080B25B
:101E3000042302900B9A039907F0E5F900BF0A9872
:101E4000401E0A900A98012801DA0C200A900A988C
:101E50000C2801DD01200A901820009001901098B4
:101E6000049000EBD070411011980A180E99109848
:101E70000844104480B203900F99129808445230DD
:101E800080B2042302900A9A039907F0BCF900BFBC
:101E90000998401E09900998012804DADDE90A1022
:101EA000FFF715FC0990DDE90A10FFF710FC09990E
:101EB000884201DA012009901820009001901098C2
:101EC000049000EBD070411011980A180E991098E8
:101ED000084402EB400080B203900F991298084426
:101EE000463080B204230290099A039900E057E03B
:101EF00007F089F954E00898401E089008980028D7
:101F000001DA172008900898172801DD00200890B2
:101F10001820009001901098049000EBD0704110B0
:101F200011980A180E991098084400EB40001044CC
:101F300080B203900F9912980844463080B2022371
:101F40000290089A039907F05EF929E00798401E6D
:101F500007900798002801DA3B20079007983B2854
:101F600001DD002007901820009001901098049047
:101F700000EBD070411011980A180E99109808447F
:101F800002EB800080B203900F99129808445E30F3
:101F900080B202230290079A039907F034F900BF38
:101FA00000BF00202149086064200AF07BF8204827
:101FB000006803283FF43CAE1E480068012822D187
:101FC000DDE909210B98FFF7EEFB06900698C0B2F9
:101FD00004900998C0B203900A98C0B202900B987E
:101FE000A0F5FA60C0B2019002A90EC907F0ECFAA0
:101FF0000798C0B204900898C0B200231A46039014
:10200000049907F0C3FA13B000BD2DE9F04104466E
:10201000002600270025207830280DD160783A2846
:102020000AD0BDE8F0810000240000202800002034
:10203000180000201C0000200DE0605D302802DB4D
:10204000605D392800DDECE706EB86004600605D48
:10205000303806446D1C605D3A28EED16D1C0DE0F1
:10206000605D302802DB605D392800DDD9E707EBD1
:1020700087004700605D303807446D1C605D0028B4
:10208000EED1172E01DC3B2F00DDCAE7F9B2F0B22A
:1020900000231A4607F07AFA00BFC2E72DE9F043A1
:1020A00087B00A260A27642464254FF0C80804F183
:1020B0000A09F948066009EB490007EB4000F649B8
:1020C0004860084600682844886008464068204404
:1020D000C8604FF478400861AFF69811EE481430AC
:1020E0000EF0BAFD1822EC49103168460EF0D8FD0A
:1020F000E9480FC8FEF773FFE74880684044E749A6
:102100000860E548406848600846006828448860E0
:10211000084640682044C8604FF478400861AFF634
:10212000D011DE4814300EF097FD1822DB49103133
:1021300068460EF0B5FDD9480FC8FEF750FF07B04E
:10214000BDE8F08310B5D6484168002088470028D4
:102150003BD0D3488089D0490968884217DDD048F0
:102160008089CD498968884211DACD48C08ACA4938
:10217000496888420BDDCA48C08AC749C968884295
:1021800005DA0120C7490860C74908601DE0C44856
:102190008089C2490968884217DDC1488089BF49E2
:1021A0008968884211DABE48C08ABC4949688842B9
:1021B0000BDDBB48C08AB949C968884205DA0020EE
:1021C000B84908600120B849086010BD1CB500205E
:1021D000B6490870B648008803F004F90120B149F7
:1021E00008600020B14908704FF6FF70B1490880BF
:1021F000B1A018210B46D222CDE900104FF4967100
:10220000282007F06EF8FFF749FF21E0AC4800688E
:10221000012818D1A64800884FF4A073AC224FF4CF
:1022200096710090702006F0C3FDA04818210B465F
:10223000D222CDE900104FF49671702007F051F8CA
:1022400000209F490860FFF77DFF642009F02AFF06
:10225000954800680428D9D092480068012802D126
:102260009248FFF7D2FE0020904908701CBD0FB4C1
:1022700038B5189CA0B20090119DABB20E9DAAB2C9
:10228000059DA9B2069DA8B206F092FD48F21F4036
:10229000884908800F9DABB20E9DAAB2059DA9B2D8
:1022A000069DA8B206F010FE079DABB2069DAAB22D
:1022B000059DA9B2069DA8B206F006FE119DABB21F
:1022C0000E9DAAB2079DA9B2069DA8B206F0FCFD1C
:1022D000119DABB2109DAAB20F9DA9B2109DA8B2DC
:1022E00006F0F2FD77490C8071480088088038BC00
:1022F0005DF814FB10B56A48416800208847002843
:1023000052D06748808970490968884215DD644861
:1023100080896D49896888420FDA6148C08A6A49B4
:102320004968884209DD5E48C08A6749C9688842B1
:1023300003DA02205C49086036E059488089634925
:102340000968884215DD5648808960498968884255
:102350000FDA5348C08A5D494968884209DD504810
:10236000C08A5A49C968884203DA05204E49086084
:102370001AE04B48808956490968884214DD48486C
:1023800080895349896888420EDA4548C08A504995
:102390004968884208DD4248C08A4D49C968884278
:1023A00002DA09204049086010BDF0B587B0022567
:1023B0004FF4257664279624434805604660281923
:1023C00041498860F019C8604FF47840086141A124
:1023D0003D4814300EF040FC18223B49103168464D
:1023E0000EF05EFC38480FC8FEF7F9FD2819374992
:1023F00008600846466000682044886008464068D7
:102400003844C8604FF47840086135A12F48143033
:102410000EF022FC18222D49103168460EF040FCC7
:102420002A480FC8FEF7DBFD05EB44002849086089
:102430000846466000682044886008464068384482
:10244000C8604FF47840086127A1214814300EF08D
:1024500003FC18221E49103168460EF021FC1C486E
:102460000FC8FEF7BCFD07B0F0BD10B5FEF7E4F8ED
:10247000FEF7ECF80AE0FEF7A3FAFEF7D0FAFEF753
:1024800055FDFEF75DFD642009F00CFE064800686E
:102490000128F0D010BD0000F40400201C0500202D
:1024A000680000201C0000201800002010020020FE
:1024B000140000205C000020696E7075743A000002
:1024C000340000205E000020240200204C02002086
:1024D0009C0200207365742D74696D650000000016
:1024E000616C61726D000000636F756E74000000B6
:1024F000F0B587B064256426C824C827FB4805606A
:102500004660E819F94988603019C8604FF478408E
:102510000861F7A1F54814300EF09EFB1822F3492C
:10252000103168460EF0BCFBF0480FC8FEF757FDAF
:10253000F348056006EB4400F1494860084600682E
:1025400038448860084640682044C8604FF47840AA
:102550000861ECA1EA4814300EF07EFB1822E8492D
:10256000103168460EF09CFBE5480FC8FEF737FDBA
:1025700007B0F0BD10B5E848416800208847B0B307
:10258000E5488089D9490968884215DDE248808993
:10259000D649896888420FDADF48C08AD34949683A
:1025A000884209DDDC48C08AD049C968884203DA1C
:1025B0000620DA4908601AE0D7488089D0490968BE
:1025C000884214DDD4488089CD49896888420EDA72
:1025D000D148C08ACA494968884208DDCE48C08AC5
:1025E000C749C968884202DA0720CC49086010BD93
:1025F00010B50520C9490860FEF71EF8FFF778FFFF
:1026000004E0FFF7B7FF642009F04CFDC348006801
:102610000528F6D010BD2DE9F04387B00A26B04654
:1026200064246425C82704F10A09BD480660C0F87F
:1026300004807019BA49886008EB0400C8604FF440
:10264000784008610846B7A109888182182200F104
:10265000100168460EF024FBB1480FC8FEF7BFFC1E
:10266000AF4880683844B0490860AD484068486069
:102670000846006828448860084640682044C860CE
:102680004FF4784008610846A8A109888182182281
:1026900000F1100168460EF003FBA3480FC8FEF7D7
:1026A0009EFCA34806609E48C0684844A049486014
:1026B0000846006828448860084640682044C8608E
:1026C0004FF478400861084696A109888182182253
:1026D00000F1100168460EF0E3FA95480FC8FEF7C6
:1026E0007EFC8F4880683844924908609048406872
:1026F00048600846006828448860084640682044CE
:10270000C8604FF478400861084688A10988818232
:10271000182200F1100168460EF0C2FA85480FC871
:10272000FEF75DFC844806608148C06848448249E1
:10273000486008460068284488600846406820448D
:10274000C8604FF478400861084676A10988818204
:10275000182200F1100168460EF0A2FA76480FC860
:10276000FEF73DFC7448806838447449086072483C
:102770004068486008460068284488600846406809
:102780002044C8604FF478400861084667A1098872
:102790008182182200F1100168460EF081FA674824
:1027A0000FC8FEF71CFC6648066009EB490008EB01
:1027B000400063494860084600682844886008462D
:1027C00040682044C8604FF4784008615D495C4827
:1027D00014300EF041FA18225949103168460EF0B3
:1027E0005FFA57480FC8FEF7FAFB5548806838442F
:1027F00055490860524840684860084600682844C7
:102800008860084640682044C8604FF478400861FA
:102810004C490C314C4814300EF01EFA18224A492B
:10282000103168460EF03CFA47480FC8FEF7D7FB58
:1028300007B0BDE8F08310B53748416800208847ED
:1028400000281AD03448808935490968884215DD46
:10285000314880893249896888420FDA2E48C08A17
:102860002F494968884209DD2B48C08A2C49C9682C
:10287000884203DA012035490860F9E0264880895A
:102880002B490968884215DD2348808928498968D1
:1028900088420FDA2048C08A25494968884209DD04
:1028A0001D48C08A2249C968884203DA02202749A4
:1028B0000860DDE0184880891F490968884247DDC3
:1028C000154880891C498968884241DA1248C08AC3
:1028D0001949496888423BDD0F48C08A1649C968D2
:1028E000884235DA032019490860C1E06C050020F0
:1028F00061646420616C61726D20636C6F636B0056
:102900004405002064726F7020616C61726D2063F9
:102910006C6F636B0000000068000020180000204E
:10292000140300202B000000040400202D000000F0
:102930003C0300202C0400206403002054040020E9
:10294000F4040020441700081C0500202400002087
:10295000FE488089FE490968884215DDFB48808968
:10296000FB49896888420FDAF848C08AF849496803
:10297000884209DDF548C08AF549C968884203DA0A
:102980000120F449086073E0F0488089F249096841
:10299000884215DDED488089EF49896888420FDA61
:1029A000EA48C08AEC494968884209DDE748C08A9C
:1029B000E949C968884203DA0220E649086057E01D
:1029C000E2488089E5490968884215DDDF48808949
:1029D000E249896888420FDADC48C08ADF494968E1
:1029E000884209DDD948C08ADC49C968884203DACF
:1029F0000320D84908603BE0D4488089D849096859
:102A0000884217DDD1488089D5498968884211DA22
:102A1000CE48C08AD249496888420BDDCB48C08A7B
:102A2000CF49C968884205DA0120CE490860CE49FD
:102A300008601DE0C5488089CC490968884217DDD7
:102A4000C2488089C9498968884211DABF48C08A6A
:102A5000C649496888420BDDBC48C08AC349C96879
:102A6000884205DA0020BF4908600120BE4908609D
:102A700010BD2DE9FF5F0A250A2664246427AB46B2
:102A8000BB48008802F0AEFC48F21F40B9490880FC
:102A900003A900200AF0EAFF9DF80C909DF80DA014
:102AA0004FF00008FFF7B7FDB3A0182104EBD47274
:102AB000CDE90104009106EB6201EA1902F10A0076
:102AC0001823642206F00DFC1820009004EBD47249
:102AD00006EB6201EA19CDE9010402F14600042384
:102AE000424606F090FBAFF61070182104EBD4724A
:102AF00006EB620304EB0B02CDE90104009103EB4A
:102B00004201EA1902F10A001823642206F0E9FBE7
:102B10001820009004EBD47206EB620304EB0B0266
:102B200003EB4201EA19CDE9010402F14600042356
:102B30004A4606F068FBAFF65870182104EBD472D1
:102B400006EB620304EB0B02CDE90104009103EBF9
:102B50008201EA1902F10A001823642206F0C1FB7F
:102B60001820009004EBD47206EB620304EB0B0216
:102B700003EB8201EA19CDE9010402F15E000423AE
:102B8000524606F040FBDCE0FFF755FE7C4800684B
:102B9000012804D002281FD003285FD13DE008F1AE
:102BA0000108B8F1000F01DA4FF00708B8F1070F7C
:102BB00001DD4FF000081820009004EBD47206EB02
:102BC000620291B2EA194632CDE9010490B20423BF
:102BD000424606F018FB41E009F10109B9F1000F86
:102BE00001DA4FF01709B9F1170F01DD4FF00009B5
:102BF0001820009004EBD47206EB620304EB0B0286
:102C000003EB420291B2EA194632CDE9010490B2D7
:102C100004234A4606F0F7FA20E00AF1010ABAF165
:102C2000000F01DA4FF03B0ABAF13B0F01DD4FF024
:102C3000000A1820009004EBD47206EB620304EB48
:102C40000B0203EB820291B2EA195E32CDE9010474
:102C500090B20423524606F0D6FA00BF00BF00200F
:102C6000474908603B480068012804D002281FD06B
:102C700003285FD13DE0A8F10108B8F1000F01DAA7
:102C80004FF00708B8F1070F01DD4FF000081820DA
:102C9000009004EBD47206EB620291B2EA1946325C
:102CA000CDE9010490B20423424606F0ACFA41E0BB
:102CB000A9F10109B9F1000F01DA4FF01709B9F1D3
:102CC000170F01DD4FF000091820009004EBD472BB
:102CD00006EB620304EB0B0203EB420291B2EA192A
:102CE0004632CDE9010490B204234A4606F08BFA3D
:102CF00020E0AAF1010ABAF1000F01DA4FF03B0A15
:102D0000BAF13B0F01DD4FF0000A1820009004EBF0
:102D1000D47206EB620304EB0B0203EB820291B266
:102D2000EA195E32CDE9010490B20423524606F05E
:102D30006AFA00BF00BF002006490860642009F05D
:102D4000B1F90948006806281CE00000680000206E
:102D500004040020280000202C040020540400203B
:102D6000F40400201C000020180000201C05002096
:102D7000140000205C0000207765656B3A000000BD
:102D8000240000203FF400AFFE48006801280AD16B
:102D9000CDF80490CDF808A0CDF800809DE807009C
:102DA00006F05AFD00BFBDE8FF9F2DE9F0438FB04C
:102DB00000240A250A2764264FF4C87806F10A0978
:102DC00000BF5BE004EB8400EF4941F8305009FBA1
:102DD000047004EB8401EC4A02EBC101486005EB8E
:102DE000080004EB840102EBC101886004EB84005D
:102DF000114601EBC0004068304404EB840102EB53
:102E0000C101C86004EB4401E04800EB8100806828
:102E100004EB44010090DD4800EB810004EB440129
:102E20004368DA4850F82120D9A107A80DF084FDA5
:102E300004EB8401D44A02EBC10101F1140007A99B
:102E40000DF00AFF4FF4784004EB8401CE4A02EB08
:102E5000C101086104EB840002EBC00000F1100125
:102E6000182268460DF01CFF04EB8400C64901EBF4
:102E7000C00C9CE80F00FEF7B2F8641CC348083889
:102E80000068A0429EDCC1480838006810B3BF4803
:102E900008380468C348056009FB0470C1494860EC
:102EA0000846006840448860084640683044C8606E
:102EB0004FF478400861BC49BA4814300DF0CCFE9C
:102EC0001822B849103168460DF0EAFEB5480FC81F
:102ED000FEF785F8641CB548056009FB0470B3492A
:102EE00048600846006840448860084640683044AE
:102EF000C8604FF478400861AB490C31AB481430DE
:102F00000DF0AAFE1822A949103168460DF0C8FE3E
:102F1000A6480FC8FEF763F80FB0BDE8F08330B5E0
:102F200087B00024A24841680020884700287DD04F
:102F30009F4880899B490968884217DD9C488089A1
:102F400098498968884211DA9948C08A9549496840
:102F500088420BDD9648C08A9249C968884205DAE2
:102F6000012088490860934908601DE090488089E5
:102F70008E490968884217DD8D4880898B498968A8
:102F8000884211DA8A48C08A8849496888420BDD3C
:102F90008748C08A8549C968884205DA002079498E
:102FA000086001208349086000246DE08048808922
:102FB00004EB8401744A52F83110884263DD7C4886
:102FC000808904EB840102EBC101896888425ADAE6
:102FD0007748C08A04EB840102EBC101496888424A
:102FE00051DD7348C08A04EB840102EBC101C9685A
:102FF000884248DA70480068704908606E4804608A
:103000004FF47840096801EB810102EBC1010861CE
:103010006A48006800EB800002EBC00000F110017C
:10302000182268460DF03CFE644800E032E000687B
:1030300000EB8000544901EBC00595E80F00FDF757
:10304000CEFF48F230405C49096801EB81014E4AED
:1030500002EBC10108615848006800EB800002EBF8
:10306000C00000F11001182268460DF019FE524808
:10307000006800EB8000444901EBC00595E80F00B3
:10308000FDF7ADFF05E0641C404808380068A04229
:103090008CDC00BF07B030BD10B586B000204649BB
:1030A00008604748008802F09DF9FFF77EFE48F26D
:1030B00030404149096801EB8101334A02EBC1010B
:1030C00008613D48006800EB800002EBC00000F1A1
:1030D0001001182268460DF0E3FD3748006800EB48
:1030E0008000294901EBC00494E80F00FDF777FF49
:1030F00004E0FFF714FF642008F0D4FF2D480068B7
:103100000728F6D01F480068012808D11F48083852
:103110000068002803DD2848006806F0C8FB06B0F8
:1031200010BDF0B587B064256426C824C82725489B
:1031300005604660E819234988603019C8604FF47B
:103140007840086120A11F4814300DF085FD182239
:103150001C49103168460DF0A3FD1A480FC8FDF751
:103160003EFF1B48056006EB4400194948600846CD
:10317000006838448860084640682044C8604FF4BE
:10318000784027E01C000020940500202007002044
:103190007765656B3A2530326420253032643A25F4
:1031A00030326400F4040020441700081C0500209D
:1031B00068000020180000203C0000204000002093
:1031C00014000020C4020020706F72740000000020
:1031D000EC0200200861FDA1FE480DF03DFD182223
:1031E000FC49091F68460DF05BFDFA4814380FC80A
:1031F000FDF7F5FE07B0F0BD10B5F74841680020B7
:103200008847D0B3F4488089F4490968884215DDBD
:10321000F1488089F149896888420FDAEE48C08A0E
:10322000EE494968884209DDEB48C08AEB49C96824
:10323000884203DA0420EA4908601EE0E6488089F3
:10324000E44914390968884217DDE3488089E14977
:1032500014398968884210DADF48C08ADD49143998
:103260004968884209DDDC48C08ADA491439C968EE
:10327000884202DA0320DA49086010BD10B5FDF774
:10328000DBF9FFF74EFF01E0FFF7B6FFD448006817
:103290000228F9D010BD10B5CF48416800208847FA
:1032A000002878D0CC488089CE49096888421CDD46
:1032B000C9488089CB498968884216DAC648C08ADD
:1032C000C8494968884210DDC348C08AC549C968F1
:1032D00088420ADAC448006801285CD10020C2494B
:1032E00008600120C149086055E0BB488089C04999
:1032F0000968884215DDB8488089BD4989688842D7
:103300000FDAB548C08ABA494968884209DDB2482F
:10331000C08AB749C968884203DA0120B249086007
:1033200039E0AD488089B3490968884218DDAA4868
:103330008089B0498968884212DAA748C08AAD49B5
:10334000496888420CDDA448C08AAA49C9688842F5
:1033500006DA0120A84908600020A34908601AE0A5
:103360009D488089A5490968884214DD9A4880896A
:10337000A249896888420EDA9748C08A9F494968FD
:10338000884208DD9448C08A9C49C968884202DAAC
:1033900001209349086010BD2DE9F04186B00A274D
:1033A000B8463224E50004F10A068E48076006EBB1
:1033B000C60040448B49486008460068284488603D
:1033C000084640682044C8604FF4784008618CA1EA
:1033D000844814300DF040FC1822824910316846B0
:1033E0000DF05EFC7F480FC8FDF7F9FD7D480068D1
:1033F0007F4908607B484068304448600846006860
:1034000028448860084640682044C8604FF47840EB
:1034100008617EA1764814300DF01EFC1822744914
:10342000103168460DF03CFC71480FC8FDF7D7FD20
:103430006C4800686F4908606D48406830444860D7
:103440000846006828448860084640682044C860F0
:103450004FF4784008616FA1664814300DF0FCFB12
:1034600018226449103168460DF01AFC61480FC8F3
:10347000FDF7B5FD5B480068604908605D4840683D
:103480003044486008460068284488600846406820
:103490002044C8604FF47840086160A15748143058
:1034A0000DF0DAFB18225549103168460DF0F8FB93
:1034B00052480FC8FDF793FD06B0BDE8F0812DE935
:1034C000F04F2DED0C8B8DB04FF00008002700243D
:1034D000FA25FA264FF4784B64200790FDF7ACF8F4
:1034E000FDF7B4F8FFF758FF3B4642464D4908A8A0
:1034F00000940DF021FA08A818210B46D222CDE93C
:1035000000104FF4F071A02005F0EBFE00EE104A21
:10351000B8EEC00ADFED440A20EE200ADFED430AD0
:1035200080EE201A9FED420A31EE400A8DED020A2C
:1035300002980FF027F841EC1D0BB0EE4D0AF0EEAB
:103540006D0A0DF01DFDB0EE40BAF0EE60BA0798BE
:103550000EF0BBFC41EC1C0B53EC1B2B0EF01CFDC6
:1035600041EC190B28460EF0B0FC41EC1A0B53EC61
:10357000192B0EF041FA41EC180B0EF049FC0690A5
:1035800000EE104AB8EEC00ADFED270A20EE200A4E
:103590009FED261AC0EE010A9FED250A30EEC00A03
:1035A0008DED020A02980EF0EDFF41EC1D0BB0EE1E
:1035B0004D0AF0EE6D0A0DF047FDB0EE40BAF0EEA8
:1035C00060BA07980EF081FC34E00000636C696318
:1035D0006B0000000003002068000020C4020020EF
:1035E000180000208406002048000020440000202D
:1035F000AC060020D40600204C000020F40400207B
:10360000636F6E74696E75650000000073746F708F
:1036100000000000726573746172740065786974EB
:1036200000000000F40D0008DA0FC94000007042ED
:10363000DA0FC93F41EC1C0B53EC1B2B0EF0ACFC1A
:1036400041EC190B30460EF040FC41EC1A0B53ECE8
:10365000192B0EF0D1F941EC180B0EF0D9FB0590A7
:10366000A946B246FE48A0F800B053464A46DDF8E7
:1036700014C01FFA8CF1DDF818C01FFA8CF005F0A9
:1036800023FC0020F7490860F74908600120F7494A
:103690000860EAE0FFF7FFFDF2480068012806D164
:1036A00004A900200AF0E2F90020EE490860EE4883
:1036B0000068012819D103A900200AF0D7F99DF864
:1036C0000C00A0EB0800C0B28DF810009DF80D00B2
:1036D000C01BC0B28DF811009DF80E00001BC0B2D7
:1036E0008DF812000020E0490860E04800680028DA
:1036F0007DD103A90AF0BAF99DF80C009DF81010CD
:10370000A0EB01089DF80D009DF81110471A9DF8D7
:103710000E009DF81210441A002C01DA3C347F1E72
:10372000002F02DA3C37A8F10108FDF7F1FB3B4618
:103730004246CF4908A800940DF0FEF808A81821C9
:103740000B46D222CDE900104FF4F071A02005F015
:10375000C8FD00EE104AB8EEC00A5FED4D0A20EE3B
:10376000200A5FED4E0A80EE201A1FED4F0A31EE5F
:10377000400A8DED020A02980EF004FF41EC1D0B89
:10378000B0EE4D0AF0EE6D0A0DF0FAFBB0EE40BA65
:10379000F0EE60BA07980EF098FB41EC1C0B53EC6E
:1037A0001B2B0EF0F9FB41EC190B28460EF08DFB9C
:1037B00041EC1A0B53EC192B0EF01EF941EC180BCF
:1037C0000EF026FB069000EE104AB8EEC00A5FED40
:1037D0006A0A60EE200A1FED6B1A80EE810A5FED27
:1037E0006C0A30EE600A8DED020A029800E039E0C2
:1037F0000EF0C8FE41EC1D0BB0EE4D0AF0EE6D0A66
:103800000DF022FCB0EE40BAF0EE60BA07980EF070
:103810005CFB41EC1C0B53EC1B2B0EF0BDFB41EC95
:10382000190B30460EF051FB41EC1A0B53EC192BDF
:103830000EF0E2F841EC180B0EF0EAFA0590A946FA
:10384000B2468748A0F800B01FFA8AF31FFA89F23F
:10385000DDF814C01FFA8CF1DDF818C01FFA8CF0E7
:1038600005F032FB642008F01DFC8248006809283E
:103870003FF410AF0DB0BDEC0C8BBDE8F08F2DE91F
:10388000F04186B00A27B8463224E50004F10A0662
:103890007948076006EBC60040447749486008460F
:1038A000006828448860084640682044C8604FF497
:1038B00078400861AFF2B8216F4814300DF0CCF9B0
:1038C00018226D49103168460DF0EAF96A480FC8B0
:1038D000FDF785FB684800686849086066484068ED
:1038E00030444860084600682844886008464068BC
:1038F0002044C8604FF478400861AFF2F0215F487F
:1039000014300DF0A9F918225C49103168460DF009
:10391000C7F95A480FC8FDF762FB57480068584975
:1039200008605648406830444860084600682844AB
:103930008860084640682044C8604FF478400861B9
:10394000AFF228314E4814300DF086F918224C4958
:10395000103168460DF0A4F949480FC8FDF73FFB48
:1039600006B0BDE8F08110B54648416800208847A0
:10397000002859D0434880893F49096888421CDDA6
:10398000404880893C498968884216DA3D48C08AA7
:1039900039494968884210DD3A48C08A3649C968C1
:1039A00088420ADA3148006801283DD100202F49B9
:1039B000086001202C49086036E0324880892F4990
:1039C0000968884215DD2F4880892C49896888421A
:1039D0000FDA2C48C08A29494968884209DD2948FC
:1039E000C08A2649C968884203DA01201F49086055
:1039F0001AE02448808922490968884214DD214858
:103A000080891F49896888420EDA1E48C08A1C498D
:103A10004968884208DD1B48C08A1949C96888423C
:103A200002DA01201349086010BD2DE9F04F2DED99
:103A30000C8B8DB01448D0F80080144805681448E9
:103A40000468FA26FA274FF4784B64200790FCF7B5
:103A5000F3FDFCF7FBFDFFF712FF2B46424619E092
:103A60005C0000204C0000204400002048000020A2
:103A7000F40D00081800002084060020AC06002089
:103A8000F4040020680000205000002054000020B2
:103A900058000020FE4908A800940CF04DFF08A82B
:103AA00018210B46D222CDE900104FF4F071A0206E
:103AB00005F017FC00EE104AB8EEC00ADFEDF50A7B
:103AC00020EE200ADFEDF40A80EE201A9FEDF30AC3
:103AD00031EE400A8DED020A02980EF053FD41ECE2
:103AE0001D0BB0EE4D0AF0EE6D0A0DF049FAB0EE86
:103AF00040BAF0EE60BA07980EF0E7F941EC1C0B03
:103B000053EC1B2B0EF048FA41EC190B30460EF02B
:103B1000DCF941EC1A0B53EC192B0DF06DFF41EC65
:103B2000180B0EF075F9069000EE104AB8EEC00AB8
:103B3000DFEDD80A60EE200A9FEDD71A80EE810AE9
:103B4000DFEDD60A30EE600A8DED020A02980EF023
:103B500019FD41EC1D0BB0EE4D0AF0EE6D0A0DF0B3
:103B600073FAB0EE40BAF0EE60BA07980EF0ADF915
:103B700041EC1C0B53EC1B2B0EF00EFA41EC190B15
:103B800038460EF0A2F941EC1A0B53EC192B0DF04C
:103B900033FF41EC180B0EF03BF90590B146BA46E5
:103BA000BF48A0F800B053464A46DDF814C01FFADB
:103BB0008CF1DDF818C01FFA8CF005F085F90020B3
:103BC000B8490860B84908600120B8490860F0E0C9
:103BD000FFF7C9FEB8F1000F04D11DB914B90120D7
:103BE000B3490860B0480068012819D103A9002032
:103BF00009F03CFF9DF80C00A0EB0800C0B28DF866
:103C000010009DF80D00401BC0B28DF811009DF80A
:103C10000E00001BC0B28DF812000020A2490860FF
:103C2000A248006800287BD103A909F01FFF9DF876
:103C30000C009DF81010401A9E490968A1EB00087D
:103C40009DF80D009DF81110401A9B4909680D1A46
:103C50009DF80E009DF81210401A984909680C1A38
:103C6000002C01DA3C346D1E002D02DA3C35A8F13F
:103C70000108FDF74DF92B464246854908A80094F6
:103C80000CF05AFE08A818210B46D222CDE90010EC
:103C90004FF4F071A02005F024FB00EE104AB8EEBE
:103CA000C00ADFED7C0A60EE200A9FED7B1A80EEF1
:103CB000810ADFED7A0A30EE600A8DED020A029881
:103CC0000EF060FC41EC1D0BB0EE4D0AF0EE6D0AFB
:103CD0000DF056F9B0EE40BAF0EE60BA07980EF06B
:103CE000F4F841EC1C0B53EC1B2B0EF055F941EC96
:103CF000190B30460EF0E9F841EC1A0B53EC192B76
:103D00000DF07AFE41EC180B0EF082F8069000EEF2
:103D1000104AB8EEC00ADFED5F0A20EE200A00E08C
:103D200044E09FED5D1AC0EE010A9FED5C0A30EEA3
:103D3000C00A8DED020A02980EF024FC41EC1D0B26
:103D4000B0EE4D0AF0EE6D0A0DF07EF9B0EE40BA1D
:103D5000F0EE60BA07980EF0B8F841EC1C0B53EC8B
:103D60001B2B0EF019F941EC190B38460EF0ADF88B
:103D700041EC1A0B53EC192B0DF03EFE41EC180BE5
:103D80000EF046F80590B146BA464548A0F800B096
:103D90001FFA8AF31FFA89F2DDF814C01FFA8CF1BA
:103DA000DDF818C01FFA8CF005F08EF8642008F0DA
:103DB00079F93F48006808283FF40AAF0DB0BDEC20
:103DC0000C8BBDE8F08F2DE9F04391B00A26B04688
:103DD00064246425C827B14639480660C0F80480C9
:103DE00070193749886008EB0400C8604FF47840C8
:103DF0000861084633A109888182182200F1100168
:103E000068460CF04DFF2E480FC8FDF7E8F82C4827
:103E1000806838442C490860294840684860084652
:103E2000006828448860084640682044C8604FF411
:103E300078400861084625A109888182182200F18E
:103E4000100168460CF02CFF1F480FC8FDF7C7F89B
:103E500047F67C5028221C49109006A80CF020FF41
:103E600018221749103168460CF01AFF14480FC881
:103E7000FEF7FDF9164806601148C0684844144929
:103E8000486008460068284488600846406821E089
:103E9000F40D0008DA0FC94000007042DA0FC93F84
:103EA0005C0000204C00002044000020480000205E
:103EB000180000205000002054000020580000206E
:103EC000140300202B000000040400202D0000003B
:103ED0003C0300202044C8604FF478400861084645
:103EE000AFF2200109888182182200F11001684692
:103EF0000CF0D6FEFE480FC8FDF771F8FD4880684B
:103F00003844FD490860FA4840684860084600683F
:103F100028448860084640682044C8604FF47840D0
:103F200008610846AFF25C0109888182182200F11D
:103F3000100168460CF0B4FEEF480FC8FDF74FF8CB
:103F400047F67C502822EC49109006A80CF0A8FEF9
:103F50001822E749103168460CF0A2FEE4480FC869
:103F6000FEF785F9E5480660E148C0684844E34942
:103F70004860084600682844886008464068204435
:103F8000C8604FF4784008610846AFF2C80109885C
:103F90008182182200F1100168460CF081FED7489A
:103FA0000FC8FDF71CF8D54880683844D44908602C
:103FB000D24840684860084600682844886008463F
:103FC00040682044C8604FF4784008610846AFF26A
:103FD000041109888182182200F1100168460CF052
:103FE0005FFEC7480FC8FCF7FAFF47F67C5028224F
:103FF000C349109006A80CF053FE1822BF49103197
:1040000068460CF04DFEBD480FC8FEF730F904F1CC
:104010000A09BC48066009EB490008EB4000B949B1
:104020004860084600682844886008464068204484
:10403000C8604FF478400861B349B24814300CF0BE
:104040000BFE1822AF49103168460CF029FEAD482E
:104050000FC8FCF7C4FFAB4880683844AB49086020
:10406000A8484068486008460068284488600846B8
:1040700040682044C8604FF478400861A2490C3180
:10408000A24814300CF0E8FD1822A049103168460F
:104090000CF006FE9D480FC8FCF7A1FF11B0BDE86B
:1040A000F08310B59A4841680020884700281AD04C
:1040B000974880898F490968884215DD944880892E
:1040C0008C49896888420FDA9148C08A89494968D1
:1040D000884209DD8E48C08A8649C968884203DA69
:1040E00001208C490860C8E08948808980490968B6
:1040F000884215DD864880897D49896888420FDAC3
:104100008348C08A7A494968884209DD8048C08A64
:104110007749C968884203DA02207E490860ACE02A
:104120007B48808975490968884215DD784880890F
:104130007249896888420FDA7548C08A6F494968B0
:10414000884209DD7248C08A6C49C968884203DA2E
:1041500003207049086090E06D4880896E490968C5
:10416000884215DD6A4880896B49896888420FDA80
:104170006748C08A68494968884209DD6448C08A3E
:104180006549C968884203DA01206449086074E01F
:104190005F48808958490968884215DD5C488089F4
:1041A0005549896888420FDA5948C08A5249496896
:1041B000884209DD5648C08A4F49C968884203DAF7
:1041C00002205649086058E0514880894C490968E6
:1041D000884215DD4E4880894949896888420FDA4E
:1041E0004B48C08A46494968884209DD4848C08A28
:1041F0004349C968884203DA0320484908603CE023
:10420000434880893F490968884218DD40488089D1
:104210003C498968884212DA3D48C08A3949496870
:1042200088420CDD3A48C08A3649C968884206DAB5
:1042300001203B49086008203A4908601DE03448E5
:10424000808932490968884217DD314880892F49C1
:104250008968884211DA2E48C08A2C494968884208
:104260000BDD2B48C08A2949C968884205DA00203D
:104270002B49086001202B49086010BD2DE9FF5F24
:104280004FF00008C146C2460A250A266424642766
:10429000AB46002003902448008801F0A3F84FF6B5
:1042A000FF702249088047F67C5021490880214848
:1042B000182104EBD472CDE90104009106EB6201F0
:1042C000EA1902F10A001823642205F00AF81820FE
:1042D000009004EBD47206EB6201EA19CDE9010407
:1042E00002F1460004234A4604F08DFF114823E002
:1042F0003C030020140300202C0400206403002051
:1043000054040020F4040020441700081C05002079
:104310006800002024000020040400202800002061
:104320001C00002018000020140000205C00002069
:104330005E000020D81B00080830182104EBD4725E
:1043400006EB620304EB0B0CCDE901040091039A28
:10435000521C03921CFB023291B2EA1902F10A00CC
:104360001823642204F0BDFF1820009004EBD472DF
:1043700006EB620304EB0B0CCDE90104039A1CFB72
:10438000023291B2EA1902F15E000423524604F0AF
:104390003AFFB4A0182104EBD47206EB620304EBDD
:1043A0000B0CCDE901040091039A521C03921CFBF3
:1043B000023291B2EA1902F10A001823642204F0D1
:1043C00090FF1820009004EBD47206EB620304EB1C
:1043D0000B0CCDE90104039A1CFB023291B2EA19DD
:1043E00002F15E000423424604F00DFFFFF7EBFCF0
:1043F000DAE0FFF756FE9D480068012804D0022845
:104400001FD003285ED13CE009F10109B9F1000F8A
:1044100001DA4FF01709B9F1170F01DD4FF000096C
:104420001820009004EBD47206EB620291B2EA19F4
:104430004632CDE9010490B204234A4604F0E3FE7B
:1044400040E00AF1010ABAF1000F01DA4FF03B0A2D
:10445000BAF13B0F01DD4FF0000A1820009004EB89
:10446000D47206EB620204EB0B031A4491B2EA1910
:104470005E32CDE9010490B20423524604F0C3FE3B
:1044800020E008F10108B8F1000F01DA4FF03B0A13
:10449000B8F13B0F01DD4FF000081820009004EB4D
:1044A000D47206EB620304EB0B0203EB420291B2FF
:1044B000EA195E32CDE9010490B20423424604F0C9
:1044C000A2FE00BF00BF002068490860684800687D
:1044D000012804D002281FD003285ED13CE0A9F1B6
:1044E0000109B9F1000F01DA4FF01709B9F1170FFF
:1044F00001DD4FF000091820009004EBD47206EBA8
:10450000620291B2EA194632CDE9010490B2042365
:104510004A4604F078FE40E0AAF1010ABAF1000F21
:1045200001DA4FF03B0ABAF13B0F01DD4FF0000A10
:104530001820009004EBD47206EB620204EB0B032C
:104540001A4491B2EA195E32CDE9010490B2042313
:10455000524604F058FE20E0A8F10108B8F1000F1F
:1045600001DA4FF03B0AB8F13B0F01DD4FF00008D4
:104570001820009004EBD47206EB620304EB0B02EC
:1045800003EB420291B2EA195E32CDE9010490B226
:104590000423424604F037FE00BF00BF0020344928
:1045A0000860642007F07EFD324800680A283FF466
:1045B00020AF31480068012808D13048C0F8009089
:1045C0002F48C0F800A02F48C0F80080BDE8FF9F2A
:1045D00010B5FCF731F8FCF739F8FDF7E6FE0CE012
:1045E000FCF7EEF9FCF71BFAFCF7A0FCFCF7A8FCC3
:1045F000FDF780FE642007F055FD1E4800680B287B
:10460000EED010BD01201B4908602AE0194800685F
:104610000C2822D2DFE800F02106090C0F12151831
:10462000211B211EFDF721FF17E0FEF727FE14E0F6
:10463000FDF794F911E0FDF7C9FD0EE0FDF7D8FF95
:104640000BE0FEF716FA08E0FEF726FD05E0FEF7A0
:1046500036FF02E0FFF7BCFF00BF00BF642007F099
:1046600021FDD3E77365636F6E643A002400002078
:1046700028000020180000201C000020500000200E
:1046800054000020580000201CB50121202008F013
:1046900059FC4FF4C060009001208DF80400002008
:1046A0008DF8060003208DF8050001208DF8070025
:1046B0006946044807F0C4FE4FF4C061014807F0A2
:1046C0003BFF1CBD0014024001B5BDF80000009086
:1046D000BDF80000F849088008BD01B5BDF800002C
:1046E0000090BDF80000F449891C088008BD08B599
:1046F000F148801C00880090BDF8000008BDEE4A1B
:1047000010804FF0D842A2F88010704710B50446D0
:104710002046FFF7D9FF052007F07CFCFFF7E7FFF5
:1047200010BDE6480089E44908807047E249891CC9
:104730000880704730B5014601F01F04C1F34513EE
:10474000CA0AE50205EB43151544A8B230BD00BF07
:104750000100A0F10102D0B2FAD1704730B5044691
:104760000D46D648808849F24131884205D0D34869
:10477000808845F21031884214D1D0494889FFF72A
:10478000A3FF2012FFF7A9FFE0B2FFF7A6FFCB4976
:104790008889FFF799FF2812FFF79FFFE8B2FFF71C
:1047A0009CFFABE0C548808846F6040188421DD1D5
:1047B000C2488079012804D1C0480088401E001BEF
:1047C00084B2BE494889FFF77FFF2012FFF785FFBB
:1047D000E0B2FFF782FFB9498889FFF775FF281219
:1047E000FFF77BFFE8B2FFF778FF87E0B3488088E8
:1047F00041F66311884247D1B0488079A8B9AF48E3
:104800000088401E001B84B2AC494889FFF75CFF5A
:104810000020FFF762FF0020FFF75FFF2012FFF785
:104820005CFFE0B2FFF759FF16E0A4494889FFF7A3
:104830004BFF2012FFF751FFE0B2FFF74EFF9F49F9
:104840000988491EC1F30F20FFF747FF9B490978EC
:10485000491EC8B2FFF741FF98498889FFF734FF26
:104860002812FFF73AFFE8B2FFF737FF934949886C
:10487000491EC1F30F20FFF730FF90498978491E88
:10488000C8B2FFF72AFF39E08C48808845F2105102
:10489000884220D189494889FFF716FF2012FFF787
:1048A0001CFF86494989491C88B2FFF70DFFE0B219
:1048B000FFF713FF81498889FFF706FF2812FFF7EA
:1048C0000CFF7E498989491C88B2FFF7FDFEE8B2DA
:1048D000FFF703FF12E079488079012804D1774877
:1048E0000088401E001B84B2744948892146FFF7A6
:1048F00006FF724988892946FFF701FF30BD2DE97F
:10490000F04105460E4600240027A0466B4800886B
:10491000A84203DD69484088B04202DC0020BDE8BF
:10492000F08131462846FFF719FF6448808849F234
:104930004131884211D06148808846F6040188429E
:104940000BD05E48808845F21031884205D05B4824
:10495000808841F66311884203D12E20FFF7B4FE10
:104960000DE05648808845F21051884204D14FF43A
:104970003850FFF7A9FE02E02220FFF7A5FE4F48BE
:10498000808849F22031884202D10220FFF7DFFE01
:10499000FFF7ADFE04464948808841F6631188421E
:1049A00001D12046BBE70220FFF7D1FEFFF79FFEB3
:1049B00004464248808849F2413188420BD03F4842
:1049C000808845F21031884205D03C48808845F205
:1049D000105188420AD10220FFF7B9FEFFF787FE87
:1049E0008046E7B24FF6FF7000EA07273348808819
:1049F00049F22531884216D03048808844F235513A
:104A0000884210D02D488088091F88420BD02B483F
:104A100080884BF20551884205D0284880884CF2A6
:104A20000551884201D1204679E72448808849F21F
:104A3000413188420BD02148808845F210318842AC
:104A400005D01E48808845F21051884207D1E012F7
:104A5000C002B91240EA411040EAE8205FE7204670
:104A6000FFF768FE5BE700B51448808849F24131E2
:104A7000884211D01148808846F6040188420BD044
:104A80000E48808845F21031884205D00B48808856
:104A900041F66311884203D12920FFF715FE14E087
:104AA0000648808845F21051884209D14FF42450BD
:104AB000FFF70AFE09E000007E00006CFC06002003
:104AC00040F273110720FFF71AFE00BD00B5FD4844
:104AD000808849F24131884211D0FA48808846F6F0
:104AE000040188420BD0F748808845F21031884293
:104AF00005D0F448808841F66311884203D128200C
:104B0000FFF7E2FD0EE0EF48808845F21051884241
:104B100004D14FF42050FFF7D7FD03E00021072018
:104B2000FFF7EDFD00BDF0B5054600240027E54880
:104B3000807901280BD1E348808846F60401884239
:104B400005D0E048808841F66311884208D1DD48ED
:104B50008079F0B9DB48808841F66311884218D12A
:104B6000082D15D2DFE805F00406080A0C0E101215
:104B700006250DE007250BE0042509E0052507E0E3
:104B8000012505E0002503E0032501E0022500BF23
:104B900000BFCC48808849F24131884217D0C948CB
:104BA000808846F60401884211D0C648808845F2C4
:104BB000103188420BD0C348808845F2105188429A
:104BC00005D0C048808841F6631188427ED1082D07
:104BD0001CD2DFE805F00406090C0F12151800BFFF
:104BE00014E044F0800411E044F040040EE044F08E
:104BF000C0040BE044F0200408E044F0600405E049
:104C000044F0A00402E044F0E00400BF00BFAD485F
:104C1000808845F21051884202D14FF4585700E085
:104C20003627A848808845F2103188420DD0A54823
:104C3000808845F21051884207D0A248808841F60A
:104C40006311884201D044F008049E48808846F6EB
:104C50000401884201D144F0020421463846FFF79E
:104C60004EFD9848808841F6631188421DD004F0BB
:104C7000200068B19348008892494988884214DA34
:104C80009048068840888F490880084646800CE096
:104C90008C4800888B494988884206DD8948068807
:104CA000408888490880084646808648808845F2C2
:104CB0001051884254D183494889FFF705FD0020EF
:104CC000FFF70BFD7F494989491C00E077E088B276
:104CD000FFF7FAFC0020FFF700FD7A494989891C9B
:104CE00088B2FFF7F1FC77490988491EC1F30F200C
:104CF000FFF7F3FC73494989C91C88B2FFF7E4FC4C
:104D000070490978491EC8B2FFF7E7FC6D498889E8
:104D1000FFF7DAFC0020FFF7E0FC6A498989491CAB
:104D200088B2FFF7D1FC0020FFF7D7FC65498989DD
:104D3000891C88B2FFF7C8FC62494988491EC1F343
:104D40000F20FFF7CAFC5F498989C91C88B2FFF7A9
:104D5000BBFC5C498978491EC8B2FFF7BEFC55E030
:104D600058494889FFF7B0FC0020FFF7B6FC002047
:104D7000FFF7B3FC53490988491EC1F30F20FFF721
:104D8000ACFC50490978491EC8B2FFF7A6FC4D4952
:104D90008889FFF799FC0020FFF79FFC0020FFF7B0
:104DA0009CFC48494988491EC1F30F20FFF795FC38
:104DB00044498978491EC8B2FFF78FFC26E0082DC8
:104DC0001CD2DFE805F004070A0D0F12151844F095
:104DD000300413E044F0100410E044F020040DE02F
:104DE00000BF0BE044F0380408E044F0280405E07C
:104DF00044F0180402E044F0080400BF00BF032799
:104E000044F4805421463846FFF779FCF0BD30B5B4
:104E100004460D4629462046FFF7A0FCFFF781FC1B
:104E2000294800882949088030BD70B504460D46E0
:104E300016462448808849F24131884205D02148ED
:104E4000808845F21031884214D11E494889FFF705
:104E50003BFC2012FFF741FCE0B2FFF73EFC194992
:104E60008889FFF731FC2812FFF737FCE8B2FFF71B
:104E700034FC93E01348808845F21051884227D1D2
:104E800010494889FFF720FC2012FFF726FC0D4946
:104E90004989491C88B2FFF717FCE0B2FFF71DFCF7
:104EA00008498889FFF710FC2812FFF716FC05490E
:104EB0008989491C88B2FFF707FCE8B2FFF70DFCAF
:104EC0006CE00000FC0600205C0000208000006C0C
:104ED000FE48808841F66311884228D1FB488079DA
:104EE00020B9FA480088401E001B84B2F74948895F
:104EF000FFF7EAFB2012FFF7F0FBE0B2FFF7EDFB54
:104F00002012FFF7EAFBE0B2FFF7E7FBEF498889E1
:104F1000FFF7DAFB2812FFF7E0FBE8B2FFF7DDFB53
:104F20002812FFF7DAFBE8B2FFF7D7FB36E0E748D5
:104F3000808846F6040188421DD1E4488079012822
:104F400004D1E2480088401E001B84B2DF49488932
:104F5000FFF7BAFB2012FFF7C0FBE0B2FFF7BDFB83
:104F6000DA498889FFF7B0FB2812FFF7B6FBE8B2F1
:104F7000FFF7B3FB12E0D5488079012804D1D3486C
:104F80000088401E001B84B2D04948892146FFF7A3
:104F9000B6FBCE4988892946FFF7B1FBCB4800898B
:104FA000CB4908804FF0D840A0F8806070BD70B544
:104FB0002DED048B0446BE20FFF786FB0520FFF78E
:104FC0008CFB20460CF098FF41EC190B9FEDC10BB8
:104FD00053EC102B0CF0E0FF41EC180B0CF048FFE9
:104FE00085B22846FFF779FB0120FFF776FBFF200B
:104FF000FFF773FB0020FFF770FB0020FFF76DFB4E
:10500000BDEC048B70BD10B50446002C66D1AF49D1
:105010008871F02008804FF4A0704880084680888E
:1050200049F2413188420BD0A848808846F60401F5
:10503000884205D0A548808845F2103188421AD1AF
:105040002C20A24908812A2048812B2088810846EB
:10505000808846F60401884205D09C48808845F245
:105060001031884206D14FF4A070984908804FF45F
:10507000F0704880A1E09548808845F21051884240
:1050800010D14FF43050914908814FF42850488195
:105090004FF42C5088814FF4F07008804FF4487022
:1050A00048808AE08948808841F6631188420DD1A2
:1050B0002C20864908812B2048812A2088814FF4A2
:1050C000F07008804FF44870488076E022207F49D5
:1050D000088120204881212088816EE001207B49C1
:1050E00088714FF4A0700880F020488008468088BE
:1050F00049F24131884205D07448808845F2103128
:10510000884207D12C20714908812A2048812B2010
:1051100088813FE06D48808846F60401884207D1C7
:105120002C206A4908812B2048812A20888131E07F
:105130006648808845F21051884210D14FF43050B3
:10514000624908814FF4285048814FF42C508881DF
:105150004FF4487008804FF4F07048801AE05B48C4
:10516000808841F6631188420DD12C20574908816F
:105170002A2048812B2088814FF4487008804FF402
:10518000F070488006E022205049088121204881A3
:10519000202088814D48808846F60401884205D049
:1051A0004A48808845F21031884206D14FF4F070A9
:1051B000464908804FF4A07048800020FFF7B3FCF8
:1051C00010BD2DE9F04F86B004460D469046994635
:1051D00004EB0800401E86B205EB0900401E87B2B2
:1051E0003A48808849F24131884215D03748808852
:1051F00045F2103188420FD03448808846F60401C9
:10520000884209D031488079012826D12F488088EA
:1052100041F66311884220D12C494889FFF754FA9E
:105220002012FFF75AFAE0B2FFF757FA3012FFF7F1
:1052300054FAF0B2FFF751FA24498889FFF744FA8B
:105240002812FFF74AFAE8B2FFF747FA3812FFF7D9
:1052500044FAF8B2FFF741FAC1E01C48808841F6F1
:10526000631188423DD119480088A0EB0800001B5B
:1052700084B205EB0900401E1FFA80F913494889E2
:10528000FFF722FA2012FFF728FAE0B2FFF725FA1B
:1052900004EB0801491EC1F30F20FFF71EFA04EBCF
:1052A0000801491EC8B2FFF718FA08498889FFF7B4
:1052B0000BFA2812FFF711FAE8B2FFF70EFA4FEADD
:1052C0002920FFF70AFA09F0FF0007E0FC0600209A
:1052D0007E00006C6666666666660440FFF7FDF950
:1052E0007DE0FE48808845F21051884244D1FB4958
:1052F0004889FFF7E9F92012FFF7EFF9F7494989E3
:10530000491C88B2FFF7E0F9E0B2FFF7E6F9F3498C
:105310004989891C88B2FFF7D7F93012FFF7DDF908
:10532000EE494989C91C88B2FFF7CEF9F0B2FFF700
:10533000D4F9EA498889FFF7C7F92812FFF7CDF9B0
:10534000E6498989491C88B2FFF7BEF9E8B2FFF740
:10535000C4F9E2498989891C88B2FFF7B5F9381286
:10536000FFF7BBF9DD498989C91C88B2FFF7ACF9A1
:10537000F8B2FFF7B2F932E0D848807901280ED1AF
:10538000AA46BB46D5480088801B401E80B20190CB
:10539000D2480088001B401E80B2009003E0A24665
:1053A000B34601950097502005905120049052205B
:1053B00003905320029051460598FFF7A0F95946F3
:1053C0000498FFF79CF901990398FFF798F9009961
:1053D0000298FFF794F929462046FFF7BFF906B077
:1053E000BDE8F08F70B504460026BC4805884088AB
:1053F0004543BA48808846F60401884216D1B7482A
:105400008079012812D10020B44988712A2048816E
:105410002B20888100210846FFF7A0F90120AF4921
:1054200088712B2048812A20888103E000210846CA
:10543000FFF794F9FFF775F9002602E0A848048009
:10544000761CAE42FAD370BD00B5A1B0002020900A
:1054500001217A2007F076FD0121084607F0AAFD18
:105460004FF400401E9001208DF87C0000208DF844
:105470007E0002208DF87D0001208DF87F001EA99E
:10548000984806F0DDFF4CF233701E9002208DF834
:105490007C0000208DF87E0003208DF87D00012027
:1054A0008DF87F001EA9904806F0CAFF4FF6807065
:1054B0001E9002208DF87C0000208DF87E000320D5
:1054C0008DF87D0001208DF87F001EA9874806F029
:1054D000B7FF4FF480501E9002208DF87C00002012
:1054E0008DF87E0003208DF87D0001208DF87F006F
:1054F0001EA97F4806F0A4FF4FF480501E900220A2
:105500008DF87C0000208DF87E0003208DF87D0052
:1055100001208DF87F001EA9764806F091FF0C222D
:105520000021714807F017F80C2201216E4807F09E
:1055300012F80C2204216C4807F00DF80C2205210A
:10554000694807F008F80C220821674807F003F8BB
:105550000C220921644806F0FEFF0C220A21624851
:1055600006F0F9FF0C220E215F4806F0F4FF0C2232
:105570000F215D4806F0EFFF0C2207215B4806F083
:10558000EAFF0C220821594806F0E5FF0C22092108
:10559000564806F0E0FF0C220A21544806F0DBFFD3
:1055A0000C220B21514806F0D6FF0C2211464F4821
:1055B00006F0D1FF0C220D214C4806F0CCFF0C2246
:1055C0000E214A4806F0C7FF0C220F21474806F07B
:1055D000C2FF0C221146464806F0BDFF0C221146C0
:1055E000444806F0B8FF0F200890002009903C20A6
:1055F0000A9000200B900C900D900E9009200190C5
:10560000002002900820039000200490059006904E
:10561000079006200F9000201090119010201290FB
:105620000020139015901490169017904FF480500E
:105630001890002019904FF480401A9000201B9081
:1056400008A81C9001A81D900FA806F0D8FF012102
:10565000062007F05FF8322006F024FD012100202B
:10566000FFF74DF8322006F01DFD0020FFF74EF841
:105670001A49888008468088FF280ADB0846808807
:105680004FF6FF71884204D014488088B0F5134F5C
:105690007ED1D320FFF718F8FFF729F80F4988804B
:1056A000FFF725F80D498880FFF721F80B4988801E
:1056B000084680884FF6FF7101EA0020074988807C
:1056C000FFF715F80549898808430449888008468A
:1056D000808849F2413188425AD00DE0FC06002012
:1056E0008000006C00040240000C024000100240E8
:1056F0000014024000180240BF20FEF7E5FFFEF74D
:10570000F6FFFE498880FEF7F2FFFC498880FEF72D
:10571000EEFFFA498880FEF7EAFFF84988800846DC
:1057200080884FF6FF7101EA0020F4498880FEF777
:10573000DEFFF24989880843F0498880084680885E
:1057400046F6040188427AD0D420FEF7BDFFFEF76A
:10575000CEFFEA498880FEF7CAFFE8498880FEF755
:10576000C6FFE6498880084680884FF6FF7101EA47
:105770000020E2498880FEF7BAFFE04989880843A3
:10578000DE4988800846808845F21031884200E072
:1057900055E054D04FF45A40FEF796FFFEF7A7FFAE
:1057A000D64988804FF45B40FEF78EFFFEF79FFFDF
:1057B000D2498880084680884FF6FF7101EA0020B0
:1057C000CE4988804FF45C40FEF77EFFFEF78FFFE6
:1057D000CA4989880843C949888008468088B0F545
:1057E000004F02D145F210508880C448808845F2AD
:1057F0001051884223D0A120FEF766FFFEF777FF05
:10580000BE498880FEF773FFBC49888008468088BF
:105810004FF6FF7101EA0020B8498880FEF767FF64
:10582000B64989880843B54988800846808845F28A
:105830006171884203D141F66310B0498880AF4856
:10584000808849F24131884211D0AC48808845F2C5
:10585000103188420BD0A948808845F21051884207
:1058600005D0A648808841F6631188421DD1A4481E
:10587000006820F00F004FF02041C1F81C010846DD
:10588000D0F81C0120F47060C1F81C010846D0F863
:105890001C0140F00300C1F81C010846D0F81C01AF
:1058A00040F40070C1F81C0128E09448808846F656
:1058B0000401884205D0914880884CF20551884205
:1058C0001CD18F48006820F00F004FF02041C1F834
:1058D0001C010846D0F81C0120F47060C1F81C01BE
:1058E0000846D0F81C0140F00A00C1F81C01084627
:1058F000D0F81C0140F44060C1F81C017F48818849
:1059000080A00BF00DF87D48808849F24131884233
:105910007ED1CF20FEF7D8FE0020FEF7DEFEC120AC
:10592000FEF7DBFE3020FEF7D8FEED20FEF7CCFEC2
:105930006420FEF7D2FE0320FEF7CFFE1220FEF712
:10594000CCFE8120FEF7C9FEE820FEF7BDFE8520D3
:10595000FEF7C3FE1020FEF7C0FE7A20FEF7BDFE64
:10596000CB20FEF7B1FE3920FEF7B7FE2C20FEF764
:10597000B4FE0020FEF7B1FE3420FEF7AEFE02209A
:10598000FEF7ABFEF720FEF79FFE2020FEF7A5FEF8
:10599000EA20FEF799FE0020FEF79FFE0020FEF7AA
:1059A0009CFEC020FEF790FE1B20FEF796FEC12055
:1059B000FEF78AFE0120FEF790FEC520FEF784FE6A
:1059C0003020FEF78AFE3020FEF787FEC720FEF764
:1059D0007BFEB720FEF781FE3620FEF775FE4820DD
:1059E000FEF77BFE3A20FEF76FFE5520FEF775FEB0
:1059F000B120FEF769FE0020FEF76FFE1A20FEF7C9
:105A00006CFEB620FEF760FE0A20FEF766FE00E0A0
:105A1000A5E0A220FEF761FEF220FEF755FE002071
:105A2000FEF75BFE2620FEF74FFE0120FEF755FE37
:105A3000E020FEF749FE0F20FEF74FFE2A20FEF77A
:105A40004CFE2820FEF749FE0820FEF746FE0E20F9
:105A5000FEF743FE0820FEF740FE5420FEF73DFE11
:105A6000A920FEF73AFE4320FEF737FE0A20FEF794
:105A700034FE0F20FEF731FE0020FEF72EFE002040
:105A8000FEF72BFE0020FEF728FE0020FEF725FE85
:105A9000E120FEF719FE0020FEF71FFE1520FEF79D
:105AA0001CFE1720FEF719FE0720FEF716FE112038
:105AB000FEF713FE0620FEF710FE2B20FEF70DFE6C
:105AC0005620FEF70AFE3C20FEF707FE0520FEF7F3
:105AD00004FE1020FEF701FE0F20FEF7FEFD3F2022
